{
  "contractName": "SupplyChain",
  "abi": [
    {
      "inputs": [],
      "stateMutability": "nonpayable",
      "type": "constructor"
    },
    {
      "anonymous": false,
      "inputs": [
        {
          "indexed": false,
          "internalType": "uint256",
          "name": "sku",
          "type": "uint256"
        }
      ],
      "name": "LogForSale",
      "type": "event"
    },
    {
      "anonymous": false,
      "inputs": [
        {
          "indexed": false,
          "internalType": "uint256",
          "name": "sku",
          "type": "uint256"
        }
      ],
      "name": "LogReceived",
      "type": "event"
    },
    {
      "anonymous": false,
      "inputs": [
        {
          "indexed": false,
          "internalType": "uint256",
          "name": "sku",
          "type": "uint256"
        }
      ],
      "name": "LogShipped",
      "type": "event"
    },
    {
      "anonymous": false,
      "inputs": [
        {
          "indexed": false,
          "internalType": "uint256",
          "name": "sku",
          "type": "uint256"
        }
      ],
      "name": "LogSold",
      "type": "event"
    },
    {
      "inputs": [
        {
          "internalType": "uint256",
          "name": "",
          "type": "uint256"
        }
      ],
      "name": "items",
      "outputs": [
        {
          "internalType": "string",
          "name": "name",
          "type": "string"
        },
        {
          "internalType": "uint256",
          "name": "sku",
          "type": "uint256"
        },
        {
          "internalType": "uint256",
          "name": "price",
          "type": "uint256"
        },
        {
          "internalType": "enum SupplyChain.State",
          "name": "state",
          "type": "uint8"
        },
        {
          "internalType": "address payable",
          "name": "seller",
          "type": "address"
        },
        {
          "internalType": "address payable",
          "name": "buyer",
          "type": "address"
        }
      ],
      "stateMutability": "view",
      "type": "function"
    },
    {
      "inputs": [],
      "name": "myItem",
      "outputs": [
        {
          "internalType": "string",
          "name": "name",
          "type": "string"
        },
        {
          "internalType": "uint256",
          "name": "sku",
          "type": "uint256"
        },
        {
          "internalType": "uint256",
          "name": "price",
          "type": "uint256"
        },
        {
          "internalType": "enum SupplyChain.State",
          "name": "state",
          "type": "uint8"
        },
        {
          "internalType": "address payable",
          "name": "seller",
          "type": "address"
        },
        {
          "internalType": "address payable",
          "name": "buyer",
          "type": "address"
        }
      ],
      "stateMutability": "view",
      "type": "function"
    },
    {
      "inputs": [],
      "name": "owner",
      "outputs": [
        {
          "internalType": "address",
          "name": "",
          "type": "address"
        }
      ],
      "stateMutability": "view",
      "type": "function"
    },
    {
      "inputs": [],
      "name": "skuCount",
      "outputs": [
        {
          "internalType": "uint256",
          "name": "",
          "type": "uint256"
        }
      ],
      "stateMutability": "view",
      "type": "function"
    },
    {
      "inputs": [
        {
          "internalType": "string",
          "name": "_name",
          "type": "string"
        },
        {
          "internalType": "uint256",
          "name": "_price",
          "type": "uint256"
        }
      ],
      "name": "addItem",
      "outputs": [
        {
          "internalType": "bool",
          "name": "",
          "type": "bool"
        }
      ],
      "stateMutability": "nonpayable",
      "type": "function"
    },
    {
      "inputs": [
        {
          "internalType": "uint256",
          "name": "sku",
          "type": "uint256"
        }
      ],
      "name": "buyItem",
      "outputs": [],
      "stateMutability": "payable",
      "type": "function"
    },
    {
      "inputs": [
        {
          "internalType": "uint256",
          "name": "sku",
          "type": "uint256"
        }
      ],
      "name": "shipItem",
      "outputs": [],
      "stateMutability": "nonpayable",
      "type": "function"
    },
    {
      "inputs": [
        {
          "internalType": "uint256",
          "name": "sku",
          "type": "uint256"
        }
      ],
      "name": "receiveItem",
      "outputs": [],
      "stateMutability": "nonpayable",
      "type": "function"
    },
    {
      "inputs": [
        {
          "internalType": "uint256",
          "name": "_sku",
          "type": "uint256"
        }
      ],
      "name": "fetchItem",
      "outputs": [
        {
          "internalType": "string",
          "name": "name",
          "type": "string"
        },
        {
          "internalType": "uint256",
          "name": "sku",
          "type": "uint256"
        },
        {
          "internalType": "uint256",
          "name": "price",
          "type": "uint256"
        },
        {
          "internalType": "uint256",
          "name": "state",
          "type": "uint256"
        },
        {
          "internalType": "address",
          "name": "seller",
          "type": "address"
        },
        {
          "internalType": "address",
          "name": "buyer",
          "type": "address"
        }
      ],
      "stateMutability": "view",
      "type": "function"
    }
  ],
  "bytecode": "0x608060405234801561001057600080fd5b50336000806101000a81548173ffffffffffffffffffffffffffffffffffffffff021916908373ffffffffffffffffffffffffffffffffffffffff160217905550600060018190555061117c806100686000396000f3fe6080604052600436106100865760003560e01c8063ad4b9cfb11610059578063ad4b9cfb1461021a578063bfb231d21461031d578063d09a37131461042b578063e7fb74c714610515578063f61c899a1461054357610086565b8063227024731461008b57806362d6bbdf146100b65780638da5cb5b1461019e578063a26be999146101df575b600080fd5b34801561009757600080fd5b506100a061057e565b6040518082815260200191505060405180910390f35b3480156100c257600080fd5b50610186600480360360408110156100d957600080fd5b81019080803590602001906401000000008111156100f657600080fd5b82018360208201111561010857600080fd5b8035906020019184600183028401116401000000008311171561012a57600080fd5b91908080601f016020809104026020016040519081016040528093929190818152602001838380828437600081840152601f19601f82011690508083019250505050505050919291929080359060200190929190505050610584565b60405180821515815260200191505060405180910390f35b3480156101aa57600080fd5b506101b361073c565b604051808273ffffffffffffffffffffffffffffffffffffffff16815260200191505060405180910390f35b3480156101eb57600080fd5b506102186004803603602081101561020257600080fd5b8101908080359060200190929190505050610760565b005b34801561022657600080fd5b506102536004803603602081101561023d57600080fd5b810190808035906020019092919050505061088a565b60405180806020018781526020018681526020018581526020018473ffffffffffffffffffffffffffffffffffffffff1681526020018373ffffffffffffffffffffffffffffffffffffffff168152602001828103825288818151815260200191508051906020019080838360005b838110156102dd5780820151818401526020810190506102c2565b50505050905090810190601f16801561030a5780820380516001836020036101000a031916815260200191505b5097505050505050505060405180910390f35b34801561032957600080fd5b506103566004803603602081101561034057600080fd5b8101908080359060200190929190505050610a23565b604051808060200187815260200186815260200185600381111561037657fe5b81526020018473ffffffffffffffffffffffffffffffffffffffff1681526020018373ffffffffffffffffffffffffffffffffffffffff168152602001828103825288818151815260200191508051906020019080838360005b838110156103eb5780820151818401526020810190506103d0565b50505050905090810190601f1680156104185780820380516001836020036101000a031916815260200191505b5097505050505050505060405180910390f35b34801561043757600080fd5b50610440610b44565b604051808060200187815260200186815260200185600381111561046057fe5b81526020018473ffffffffffffffffffffffffffffffffffffffff1681526020018373ffffffffffffffffffffffffffffffffffffffff168152602001828103825288818151815260200191508051906020019080838360005b838110156104d55780820151818401526020810190506104ba565b50505050905090810190601f1680156105025780820380516001836020036101000a031916815260200191505b5097505050505050505060405180910390f35b6105416004803603602081101561052b57600080fd5b8101908080359060200190929190505050610c53565b005b34801561054f57600080fd5b5061057c6004803603602081101561056657600080fd5b8101908080359060200190929190505050610f80565b005b60015481565b60007f4627c48065af2a9648cbecdd4b9da340c00e501243cd49a8a71c30c987e8b7616001546040518082815260200191505060405180910390a16040518060c001604052808481526020016001548152602001838152602001600060038111156105eb57fe5b81526020013373ffffffffffffffffffffffffffffffffffffffff168152602001600073ffffffffffffffffffffffffffffffffffffffff1681525060026000600154815260200190815260200160002060008201518160000190805190602001906106589291906110a9565b50602082015181600101556040820151816002015560608201518160030160006101000a81548160ff0219169083600381111561069157fe5b021790555060808201518160030160016101000a81548173ffffffffffffffffffffffffffffffffffffffff021916908373ffffffffffffffffffffffffffffffffffffffff16021790555060a08201518160040160006101000a81548173ffffffffffffffffffffffffffffffffffffffff021916908373ffffffffffffffffffffffffffffffffffffffff16021790555090505060018054016001819055506001905092915050565b60008054906101000a900473ffffffffffffffffffffffffffffffffffffffff1681565b806002600381111561076e57fe5b6002600083815260200190815260200160002060030160009054906101000a900460ff16600381111561079d57fe5b146107a757600080fd5b6002600083815260200190815260200160002060040160009054906101000a900473ffffffffffffffffffffffffffffffffffffffff168073ffffffffffffffffffffffffffffffffffffffff163373ffffffffffffffffffffffffffffffffffffffff161461081657600080fd5b60036002600085815260200190815260200160002060030160006101000a81548160ff0219169083600381111561084957fe5b02179055507f5a98827d06afe0e04647b3aed26f1ffb77171ad9ac41603c4ef623a6638798c1836040518082815260200191505060405180910390a1505050565b60606000806000806000600260008881526020019081526020016000206000018054600181600116156101000203166002900480601f01602080910402602001604051908101604052809291908181526020018280546001816001161561010002031660029004801561093e5780601f106109135761010080835404028352916020019161093e565b820191906000526020600020905b81548152906001019060200180831161092157829003601f168201915b5050505050955060026000888152602001908152602001600020600101549450600260008881526020019081526020016000206002015493506002600088815260200190815260200160002060030160009054906101000a900460ff1660038111156109a657fe5b92506002600088815260200190815260200160002060030160019054906101000a900473ffffffffffffffffffffffffffffffffffffffff1691506002600088815260200190815260200160002060040160009054906101000a900473ffffffffffffffffffffffffffffffffffffffff16905091939550919395565b6002602052806000526040600020600091509050806000018054600181600116156101000203166002900480601f016020809104026020016040519081016040528092919081815260200182805460018160011615610100020316600290048015610acf5780601f10610aa457610100808354040283529160200191610acf565b820191906000526020600020905b815481529060010190602001808311610ab257829003601f168201915b5050505050908060010154908060020154908060030160009054906101000a900460ff16908060030160019054906101000a900473ffffffffffffffffffffffffffffffffffffffff16908060040160009054906101000a900473ffffffffffffffffffffffffffffffffffffffff16905086565b6003806000018054600181600116156101000203166002900480601f016020809104026020016040519081016040528092919081815260200182805460018160011615610100020316600290048015610bde5780601f10610bb357610100808354040283529160200191610bde565b820191906000526020600020905b815481529060010190602001808311610bc157829003601f168201915b5050505050908060010154908060020154908060030160009054906101000a900460ff16908060030160019054906101000a900473ffffffffffffffffffffffffffffffffffffffff16908060040160009054906101000a900473ffffffffffffffffffffffffffffffffffffffff16905086565b8060006003811115610c6157fe5b6002600083815260200190815260200160002060030160009054906101000a900460ff166003811115610c9057fe5b14610c9a57600080fd5b6060600260008381526020019081526020016000206000018054600181600116156101000203166002900480601f016020809104026020016040519081016040528092919081815260200182805460018160011615610100020316600290048015610d465780601f10610d1b57610100808354040283529160200191610d46565b820191906000526020600020905b815481529060010190602001808311610d2957829003601f168201915b50505050509050600081511415610d5c57600080fd5b600260008481526020019081526020016000206002015480341015610d8057600080fd5b837fe64ca8c671e48636f85f3008c1dd538e36bfa74fb6f2790b56b72fcc33b879ef856040518082815260200191505060405180910390a1336002600087815260200190815260200160002060040160006101000a81548173ffffffffffffffffffffffffffffffffffffffff021916908373ffffffffffffffffffffffffffffffffffffffff16021790555060016002600087815260200190815260200160002060030160006101000a81548160ff02191690836003811115610e4057fe5b02179055506002600086815260200190815260200160002060030160019054906101000a900473ffffffffffffffffffffffffffffffffffffffff1673ffffffffffffffffffffffffffffffffffffffff166108fc60026000888152602001908152602001600020600201549081150290604051600060405180830381858888f19350505050158015610ed7573d6000803e3d6000fd5b50600060026000838152602001908152602001600020600201549050600081340390506002600084815260200190815260200160002060040160009054906101000a900473ffffffffffffffffffffffffffffffffffffffff1673ffffffffffffffffffffffffffffffffffffffff166108fc829081150290604051600060405180830381858888f19350505050158015610f76573d6000803e3d6000fd5b5050505050505050565b8060016003811115610f8e57fe5b6002600083815260200190815260200160002060030160009054906101000a900460ff166003811115610fbd57fe5b14610fc757600080fd5b6002600083815260200190815260200160002060030160019054906101000a900473ffffffffffffffffffffffffffffffffffffffff168073ffffffffffffffffffffffffffffffffffffffff163373ffffffffffffffffffffffffffffffffffffffff161461103657600080fd5b7feaf695929fec8154f0eafe7248c0e16855eb9ad09e623be92f669e544d53e856836040518082815260200191505060405180910390a1600280600085815260200190815260200160002060030160006101000a81548160ff0219169083600381111561109f57fe5b0217905550505050565b828054600181600116156101000203166002900490600052602060002090601f016020900481019282601f106110ea57805160ff1916838001178555611118565b82800160010185558215611118579182015b828111156111175782518255916020019190600101906110fc565b5b5090506111259190611129565b5090565b5b8082111561114257600081600090555060010161112a565b509056fea264697066735822122037448cee6f0f1dab6975078a4648891f47ca0b44989b604d7d57498b4e20b42c64736f6c634300060c0033",
  "immutableReferences": {},
  "source": "/*\n\n    This exercise has been updated to use Solidity version 0.6\n\n    Breaking changes from 0.5 to 0.6 can be found here:\n\n    https://solidity.readthedocs.io/en/v0.6.12/060-breaking-changes.html\n\n*/\n\n\n\npragma solidity >=0.6.0 <0.7.0;\n\n\n\ncontract SupplyChain {\n\n\n\n  /* set owner */\n\n  address public owner;\n\n\n\n  /* Add a variable called skuCount to track the most recent sku # */\n\n  uint public skuCount;\n\n  /* Add a line that creates a public mapping that maps the SKU (a number) to an Item.\n\n     Call this mappings items\n\n  */\n\n  mapping (uint => Item) public items;\n\n\n\n  /* Add a line that creates an enum called State. This should have 4 states\n\n    ForSale\n\n    Sold\n\n    Shipped\n\n    Received\n\n    (declaring them in this order is important for testing)\n\n  */\n\n\n\n  enum State {ForSale, Sold, Shipped, Received}\n\n\n\n  /* Create a struct named Item.\n\n    Here, add a name, sku, price, state, seller, and buyer\n\n    We've left you to figure out what the appropriate types are,\n\n    if you need help you can ask around :)\n\n    Be sure to add \"payable\" to addresses that will be handling value transfer\n\n  */\n\n  //[me] -> no need for public, private...\n\n  struct Item {\n\n     string name;\n\n     uint sku;\n\n     uint price;\n\n     State state; // [me] pay attention to how the state is declared, there was an error when I pass it as an array\n\n     address payable seller;\n\n     address payable buyer;\n\n  }\n\n\n\n  Item public myItem;\n\n\n\n  /* Create 4 events with the same name as each possible State (see above)\n\n    Prefix each event with \"Log\" for clarity, so the forSale event will be called \"LogForSale\"\n\n    Each event should accept one argument, the sku */\n\n   // careful about event naming here and in the testing js file\n   event LogForSale(uint sku);\n\n   event LogSold(uint sku);\n\n   event LogShipped(uint sku);\n\n   event LogReceived(uint sku);\n\n\n\n/* Create a modifer that checks if the msg.sender is the owner of the contract */\n\n\n\n  modifier verifyOwner {\n\n      require(msg.sender == owner);\n\n      _;\n\n  }\n\n  modifier verifyCaller (address _address) { require (msg.sender == _address); _;}\n\n\n\n  modifier paidEnough(uint _price) { require(msg.value >= _price); _;}\n\n  modifier checkValue(uint _sku) {\n\n    //refund them after pay for item (why it is before, _ checks for logic before func)\n\n    _;\n\n    uint _price = items[_sku].price;\n\n    uint amountToRefund = msg.value - _price; // [me] does msg.value here still retain the initial value?\n\n    items[_sku].buyer.transfer(amountToRefund);\n\n  }\n\n\n\n  /* For each of the following modifiers, use what you learned about modifiers\n\n   to give them functionality. For example, the forSale modifier should require\n\n   that the item with the given sku has the state ForSale.\n\n   Note that the uninitialized Item.State is 0, which is also the index of the ForSale value,\n\n   so checking that Item.State == ForSale is not sufficient to check that an Item is for sale.\n\n   Hint: What item properties will be non-zero when an Item has been added?\n\n\n\n   PS: Uncomment the modifier but keep the name for testing purposes!\n\n   */\n\n\n\n\n\n  modifier forSale (uint _sku) {\n\n      require(items[_sku].state == State.ForSale);\n\n      bytes memory nameConverted = bytes(items[_sku].name); //[me] initially forgot the keyword memory\n\n      require(nameConverted.length != 0);\n\n      _;\n\n  }\n\n\n\n  modifier sold (uint _sku) {\n\n      require(items[_sku].state == State.Sold);\n\n      _;\n\n  }\n\n\n\n  modifier shipped (uint _sku) {\n\n      require(items[_sku].state == State.Shipped);\n\n      _;\n\n  }\n\n\n\n  modifier received (uint _sku) {\n\n      require(items[_sku].state == State.Received);\n\n      _;\n\n  }\n\n\n\n\n\n  constructor() public {\n\n    /* Here, set the owner as the person who instantiated the contract\n\n       and set your skuCount to 0. */\n\n       owner = msg.sender;\n\n       skuCount = 0;\n\n  }\n\n\n\n  function addItem(string memory _name, uint _price) public returns(bool){\n\n    emit LogForSale(skuCount);\n\n    items[skuCount] = Item({name: _name, sku: skuCount, price: _price, state: State.ForSale, seller: msg.sender, buyer: address(0)});\n\n    skuCount = skuCount + 1;\n\n    return true;\n\n  }\n\n\n\n  /* Add a keyword so the function can be paid. This function should transfer money\n\n    to the seller, set the buyer as the person who called this transaction, and set the state\n\n    to Sold. Be careful, this function should use 3 modifiers to check if the item is for sale,\n\n    if the buyer paid enough, and check the value after the function is called to make sure the buyer is\n\n    refunded any excess ether sent. Remember to call the event associated with this function!*/\n\n\n\n  function buyItem(uint sku) payable\n\n    public forSale(sku) paidEnough(items[sku].price) checkValue(sku)\n\n  {\n\n      emit LogSold(sku);\n      items[sku].buyer = msg.sender;\n\n      items[sku].state = State.Sold;\n\n      //we can't transfer the whole amount else we would be transferring more money than expected\n      items[sku].seller.transfer(items[sku].price); // unsafe to put it at the top (proceed with the state updates first) -> example of the DAO hack\n\n  }\n\n\n\n  /* Add 2 modifiers to check if the item is sold already, and that the person calling this function\n\n  is the seller. Change the state of the item to shipped. Remember to call the event associated with this function!*/\n\n  function shipItem(uint sku)\n\n    public  sold(sku) verifyCaller(items[sku].seller)\n\n  {\n\n      emit LogShipped(sku);\n      items[sku].state = State.Shipped;\n\n  }\n\n\n\n  /* Add 2 modifiers to check if the item is shipped already, and that the person calling this function\n\n  is the buyer. Change the state of the item to received. Remember to call the event associated with this function!*/\n\n  function receiveItem(uint sku)\n\n    public shipped(sku) verifyCaller(items[sku].buyer)\n\n  {\n\n      items[sku].state = State.Received;\n\n      emit LogReceived(sku);\n\n\n\n  }\n\n\n\n  /* We have these functions completed so we can run tests, just ignore it :) */\n\n\n\n  function fetchItem(uint _sku) public view returns (string memory name, uint sku, uint price, uint state, address seller, address buyer) {\n\n    name = items[_sku].name;\n\n    sku = items[_sku].sku;\n\n    price = items[_sku].price;\n\n    state = uint(items[_sku].state);\n\n    seller = items[_sku].seller;\n\n    buyer = items[_sku].buyer;\n\n    return (name, sku, price, state, seller, buyer);\n\n  }\n\n\n\n}\n",
  "sourcePath": "/home/thibault/Documents/Ethereum/ConsensysBootcamp/module7/forportfolio/supplychain/SimpleSupplyChain/contracts/SupplyChain.sol",
  "compiler": {
    "name": "solc",
    "version": "0.6.12+commit.27d51765.Emscripten.clang"
  },
  "schemaVersion": "3.3.1",
  "updatedAt": "2020-10-24T14:16:32.041Z",
  "devdoc": {
    "kind": "dev",
    "methods": {},
    "version": 1
  },
  "userdoc": {
    "kind": "user",
    "methods": {},
    "version": 1
  }
}